:020000040000FA
:100000000A128A11FC2F00308A000408840A820731
:0C001000003468346F346C346134003408
:100D220001300A128A11B1260A128A1108008312AE
:100D320003131F083F3940389F00831603139F0196
:100D420008008316031386018901850183160317A0
:100D52008801890183120313850186018901080034
:100D6200F300831203130910891473080A128A11FB
:100D720073270A128A110730F2007D30F100F10B5D
:100D8200C02EF20BC02E8312031389100800F60046
:100D92007603031DCD2ECE2EDA2E74087F3EF5008B
:100DA2007508F70077080A128A11B1260A128A1109
:100DB200EB2E02307606031DDF2EE02EEB2E74089A
:100DC200BF3EF5007508F70077080A128A11B126AE
:100DD2000A128A110800F700F501F601032F7508BF
:100DE200770784000A128A1103200A128A110A1252
:100DF2008A113C270A128A110130F5070318F60AF4
:100E02000030F6077508770784000A128A1103205A
:100E12000A128A11003A031D0F2F102FF02E08001C
:100E22000A128A11A2260A128A110A128A11982615
:100E32000A128A110A128A11B1270A128A110A1297
:100E42008A1191260A128A110A128A1191260A120D
:100E52008A11F401F40A01300A128A11C8260A1210
:100E62008A1101300A128A11EC260A128A11252FE0
:100E72000A128A110028F40074080F39F10071086F
:100E8200F2007408F039F1007108F30083120313C1
:100E920009147308F10004300310F10CFF3E031D26
:100EA2004D2F71080A128A1173270A128A118312AE
:100EB200031389140D30F100F10B5D2F831203131C
:100EC200891072080A128A1173270A128A11831270
:100ED200031389140D30F100F10B6D2F83120313EC
:100EE20089100800F000701C772F782F7C2F831256
:100EF200031306147F2F831203130610F01C822F94
:100F0200832F852F8614862F8610701D892F8A2F96
:100F12008C2F06158D2F0611F01D902F912F932FD8
:100F22008615942F8611701E972F982F9A2F0616CA
:100F32009B2F0612F01E9E2F9F2FA12F8616A22FE7
:100F42008612701FA52FA62FA82F0617A92F0613EA
:100F5200F01FAC2FAD2FAF2F8617B02F86130800CE
:100F620000300A128A1173270A128A111A30F2000B
:100F7200F830F100F10BBB2FF20BBB2F0000303029
:100F82000A128A1173270A128A110730F2007D3081
:100F9200F100F10BCA2FF20BCA2F30300A128A115C
:100FA20073270A128A110F30F2004730F100F10B59
:100FB200D82FF20BD82FDD2F30300A128A11732767
:100FC2000A128A1138300A128A1173270A128A11F8
:100FD20008300A128A1173270A128A1101300A1282
:100FE2008A1173270A128A1106300A128A1173278C
:0E0FF2000A128A11080083010A128A11112FB7
:04400E00D4E0FFFFFC
:00000001FF
