:020000040000FA
:060000000A128A110C280F
:10000800FE00030EF1000A08F2000A168A15FD2DFB
:100018000A128A110F28FA0183120313EC01ED0169
:100028008313BF308400DA300A168A158E240A1228
:100038008A1183010A168A11092E831603133A08B6
:1000480039043804031929282A28BA2838088312B9
:100058000313C60083160313390883120313C7005A
:10006800831603133A0883120313C8000A168A1169
:1000780061220A128A1183120313490848044704AB
:100088004604031D48284928BA288316031337084D
:10009800803AFF0080307F02031D54280230360268
:1000A800031C57285828BA28831603132E08F30070
:1000B8002F08F4003008F5007030F6008930F7009A
:1000C8004030F8000A168A155D260A128A110318AC
:1000D8006E286F287828F73083160313B60703189D
:1000E800B70AFF30B7078028F83083160313B6071E
:1000F8000318B70AFF30B70736080A128A154525CC
:100108000A128A11831203133D0883160313AE00E3
:10011800831203133E0883160313AF0083120313DD
:100128003F0883160313B0003808F3003908F400B9
:100138003A08F5002E08F6002F08F7003008F800F6
:100148000A168A118A230A128A117608831603135B
:10015800B5007508B4007408B3007308B200003025
:10016800B8000030B9000030BA00372983160313ED
:10017800380883120313C600831603133908831241
:100188000313C700831603133A0883120313C80026
:100198000A168A1161220A128A1183120313490866
:1001A80083160313B5008312031348088316031339
:1001B800B40083120313470883160313B300831292
:1001C8000313460883160313B2003508831203137A
:1001D800A60083160313340883120313A50083169D
:1001E8000313330883120313A4008316031332087E
:1001F80083120313A3000A168A152A260A128A11E3
:10020800831203132308DA002408DB002508DC0026
:1002180083160313380883120313DD0083160313B0
:10022800390883120313DE00831603133A08831276
:100238000313DF000A168A150B250A128A11831286
:1002480003135A0883160313B800831203135B08B9
:1002580083160313B900831203135C088316031370
:10026800BA00B601B701BE01BE0A3E08A0000130BF
:100278000310A00DFF3E031D3C290310200D4F3E27
:1002880084000A168A110A200A128A11A1000A1685
:100298008A110A200A128A11A2000A168A110A2053
:1002A8000A128A11A3000A168A110A200A128A1150
:1002B800A40024083502031D6B2923083402031DFA
:1002C8006B2922083302031D6B2921083202031807
:1002D8006E296F2970297A290130A0002008BE07ED
:1002E8000A303E06031D79297A2939293E083C0738
:1002F800A0003D0803183D0AA10036082007A20007
:1003080037080318370A2107A3002208AC0223087C
:10031800031CAD03AD023C083D040319942995293B
:100328009B29FF30AC070318AD0AFF30AD07033037
:100338002A05A00000302B05A1002008210403197C
:10034800A629A729BC29FF30AC070318AD0AFF303E
:10035800AD07BC29203083160313A0003B08840096
:100368002008831380000130A0002008BB07A729BC
:100378002D08803AFF0080307F02031DC529013017
:100388002C020318C829C929AE2903308316031380
:100398002A05A00000302B05A1002008210403191C
:1003A800D629D729892A2D30A0003B0884002008A7
:1003B800831380000130A0002008BB07892A3E086B
:1003C800A00001300310A00DFF3E031DE629031015
:1003D800200D4F3E84000A168A110A200A128A113B
:1003E80083120313A0000A168A110A200A128A111E
:1003F800A1000A168A110A200A128A11A2000A16F6
:100408008A110A200A128A11A300831603133508D9
:1004180083120313A70083160313340883120313EC
:10042800A60083160313330883120313A50083164B
:100438000313320883120313A4000A168A110E212B
:100448000A128A1183120313230883160313B100B7
:1004580083120313220883160313B00083120313B5
:10046800210883160313AF00831203132008831691
:100478000313AE00003083120313AB000030AA0050
:100488000030A9000A30A80083160313310883122C
:100498000313AF0083160313300883120313AE004F
:1004A800831603132F0883120313AD008316031357
:1004B8002E0883120313AC000A168A1551270A1254
:1004C8008A11831203132B0883160313B1008312B6
:1004D80003132A0883160313B00083120313290891
:1004E80083160313AF00831203132808831603131C
:1004F800AE002E08303EA0003B088400200883137D
:1005080080000130A0002008BB070130BE023E0A6F
:10051800031D8F2A902AE329A42A30308316031357
:10052800A0003B0884002008831380000130A0004D
:100538002008BB07FF30B6070318B70AFF30B70714
:100548003708803AFF0080307F02031DAD2A013052
:1005580036020318B02AB12A912A831603133D08DC
:10056800803AFF0080307F02031DBC2A09303C021C
:10057800031CBF2AC02AC72A083083160313A00009
:100588002008BE00CD2A831603133C08A0002008CB
:10059800BE003E08A000A1012008BC022108031CDF
:1005A800BD03BD023E080319DA2ADB2AE62A2E30EB
:1005B800A0003B0884002008831380000130A000BD
:1005C8002008BB073E080A128A1545250A128A1117
:1005D800831203133D0883160313A6008312031323
:1005E8003E0883160313A700831203133F088316DC
:1005F8000313A800260883120313B00083160313FD
:10060800270883120313B1008316031328088312E3
:100618000313B20083160313380883120313AD00C3
:1006280083160313390883120313AE0083160313CA
:100638003A0883120313AF000A168A1124250A12F6
:100648008A11831203132D08C6002E08C7002F082D
:10065800C8000A168A1161220A128A11831203132A
:10066800490883160313B500831203134808831639
:100678000313B40083120313470883160313B3004C
:1006880083120313460883160313B2004C2C3E084A
:10069800A00001300310A00DFF3E031D4E2B0310D8
:1006A800200D4F3E84000A168A110A200A128A1168
:1006B80083120313A0000A168A110A200A128A114B
:1006C800A1000A168A110A200A128A11A2000A1623
:1006D8008A110A200A128A11A30083160313350807
:1006E80083120313A700831603133408831203131A
:1006F800A60083160313330883120313A500831679
:100708000313320883120313A4000A168A110E2158
:100718000A128A1183120313230883160313B100E4
:1007280083120313220883160313B00083120313E2
:10073800210883160313AF008312031320088316BE
:100748000313AE00003083120313AB000030AA007D
:100758000030A9000A30A800831603133108831259
:100768000313AF0083160313300883120313AE007C
:10077800831603132F0883120313AD008316031384
:100788002E0883120313AC000A168A1551270A1281
:100798008A11831203132B0883160313B1008312E3
:1007A80003132A0883160313B000831203132908BE
:1007B80083160313AF008312031328088316031349
:1007C800AE002E08303EA0003B08840020088313AA
:1007D80080000130A0002008BB073E08A0000130BF
:1007E8000310A00DFF3E031DF42B0310200D4F3EF8
:1007F80084000A168A110A200A128A118312031326
:10080800A8000A168A110A200A128A11A9000A16D3
:100818008A110A200A128A11AA000A168A110A20C5
:100828000A128A11AB0083160313350883120313C7
:10083800AF0083160313340883120313AE00831624
:100848000313330883120313AD008316031332080E
:1008580083120313AC000A168A1551270A128A114B
:10086800831203132B0883160313B5008312031393
:100878002A0883160313B400831203132908831666
:100888000313B30083120313280883160313B2005B
:100898000130BE023E0A031D522C532C4B2B652CF3
:1008A8003030A0003B08840020088313800001300A
:1008B800A0002008BB07FF30BC070318BD0AFF30A3
:1008C800BD073C083D04031D6A2C6B2C542C1B2EC1
:1008D8002908840083130008A000840A0008A100E6
:1008E8002008B2002108B3000030B31BFF30B40069
:1008F800B5000230A0002008A907B51F842C852C5C
:10090800942C0330AA040030AB04B209B309B4092B
:10091800B509B20A0319B30A0319B40A0319B50AC7
:100928003C083D04031D992C9A2CA82C3508340446
:1009380033043204031DA12CA22CA82C0130BC07BF
:100948000318BD0A0030BD07BE01BE0A3E08A0005C
:1009580001300310A00DFF3E031DAD2C0310200D28
:100968004F3E84000A168A110A200A128A11A10031
:100978000A168A110A200A128A11A2000A168A1176
:100988000A200A128A11A3000A168A110A200A12DA
:100998008A11A40024083502031DDC2C2308340224
:1009A800031DDC2C22083302031DDC2C2108320233
:1009B8000318DF2CE02CE12CEB2C0130A0002008E0
:1009C800BE070A303E06031DEA2CEB2CAA2C3D0874
:1009D800803A803C031DF22C3C083E020318F52C9B
:1009E800F62CFD2C831603133C08A0002008BE003B
:1009F800152D831603133D08803AA000803020028D
:100A0800031D082D3E083C0203180B2D0C2D152D37
:100A1800831603133E08A000A1012008BC0021088A
:100A2800BD00831603132C082D0403191C2D1D2D3E
:100A38002F2D03302A05A00000302B05A100200827
:100A480021040319282D292D2F2DFF30AC07031859
:100A5800AD0AFF30AD072B1F322D332D4E2D3D082B
:100A6800803AA0002D08803A2002031D3D2D2C0855
:100A78003C020318402D412D4A2D831603133C08D0
:100A8800AC023D08031CAD03AD024E2D83160313C3
:100A9800AC01AD012D08803A803C031D552D2C0872
:100AA8003E020318582D592D652D831603133E0851
:100AB800A000A1012008AC022108031CAD03AD026F
:100AC800692D83160313AC01AD012C082D040319FD
:100AD8006E2D6F2D862D2030A0003B088400200845
:100AE800831380000130A0002008BB07FF30AC074B
:100AF8000318AD0AFF30AD072C082D04031D852D02
:100B0800862D6F2D03302A05A00000302B05A1008B
:100B1800200821040319912D922D0D2E2D30A000AF
:100B28003B0884002008831380000130A0002008BF
:100B3800BB070D2E003083120313AB000030AA0050
:100B48000030A9000A30A800831603133C08A0004F
:100B580001300310A00DFF3E031DAD2D0310200D25
:100B68004F3E84000A168A110A200A128A1183123B
:100B78000313A0000A168A110A200A128A11A1007A
:100B88000A168A110A200A128A11A2000A168A1164
:100B98000A200A128A11A300831603133508831248
:100BA8000313A70083160313340883120313A60044
:100BB80083160313330883120313A5008316031344
:100BC800320883120313A4000A168A110E210A128E
:100BD8008A11831203132308AF002208AE002108EC
:100BE800AD002008AC000A168A1551270A128A118E
:100BF800831203132808303E83160313A10021082B
:100C0800BE003E08A0003B08840020088313800033
:100C1800992DFF30BC070318BD0AFF30BD073C0AF9
:100C2800031D1A2E3D0A031D1A2E1B2E9E2D013060
:100C380083120313E007FF30600784000A168A1145
:100C48000A200A128A1183160313A0002008BE0086
:100C58003E08031D302E332E0A128A15952A3B08AA
:100C6800840083138001080083120313CC006E30C4
:100C78004C02031C402E412E1E2F0330C00040089A
:100C8800A9004C08C100C2014108F5004208F6005D
:100C98006430F3000030F4000A168A1595260A120B
:100CA8008A11740883120313A3007308A2000A3080
:100CB800A0000030A1000A168A11C8200A128A1161
:100CC8008312031320080A168A15D4240A128A11DB
:100CD800433E84000A168A110A200A128A118312D6
:100CE8000313AD000A168A110A200A128A11AE00EF
:100CF8000A168A110A200A128A11AF000330C300AB
:100D08004308A9004C08C400C5014408A2004508CE
:100D1800A3006430A0000030A1000A168A11C82080
:100D28000A128A118312031320080A168A15D4247A
:100D38000A128A115E3E84000A168A110A200A12D3
:100D48008A1183120313B0000A168A110A200A12A4
:100D58008A11B1000A168A110A200A128A11B200F1
:100D68000A168A1124250A128A11831203132D08E0
:100D7800C9002E08CA002F08CB000330C000400865
:100D8800A9004C08C100C2014108F5004208F6005C
:100D98000A30F3000030F4000A168A1595260A1264
:100DA8008A1173080A168A15D4240A128A11283E51
:100DB80084000A168A110A200A128A118312031360
:100DC800AD000A168A110A200A128A11AE000A1604
:100DD8008A110A200A128A11AF004908B0004A088D
:100DE800B1004B08B2000A168A1124250A128A118A
:100DF800831203132D08C6002E08C7002F08C80049
:100E08000030AD000030AE003F30AF004608B00003
:100E18004708B1004808B2000A168A1124250A12A8
:100E28008A11831203132D08BD002E08BE002F0857
:100E3800BF00E02F0B304C02031C232F242FAD2FB3
:100E48000330C0004008A9004C08C100C201410895
:100E5800F5004208F6000A30F3000030F4000A16E4
:100E68008A1595260A128A1173080A168A15D42437
:100E78000A128A11283E84000A168A110A200A12C8
:100E88008A1183120313AD000A168A110A200A1266
:100E98008A11AE000A168A110A200A128A11AF00B6
:100EA8000330C3004308A9004C08C400C501440826
:100EB800A2004508A3000A30A0000030A1000A16CD
:100EC8008A11C8200A128A118312031320080A16ED
:100ED8008A15D4240A128A11433E84000A168A11FC
:100EE8000A200A128A1183120313B0000A168A1103
:100EF8000A200A128A11B1000A168A110A200A1257
:100F08008A11B2000A168A1124250A128A1183123C
:100F180003132D08C9002E08CA002F08CB00003083
:100F2800AD000030AE003F30AF004908B0004A08BD
:100F3800B1004B08B2000A168A1124250A128A1138
:100F4800831203132D08BD002E08BE002F08BF0012
:100F5800E02F0030AD000030AE003F30AF0003306E
:100F6800C0004008A9004C080A168A15D4240A12A1
:100F78008A11283E84000A168A110A200A128A1148
:100F880083120313B0000A168A110A200A128A1162
:100F9800B1000A168A110A200A128A11B2000A162A
:100FA8008A1124250A128A11831203132D08BD0001
:100FB8002E08BE002F08BF000800F5008312031397
:100FC800091475080A168A15CF260A128A1183127F
:100FD80003138914EF2FF02F0000831203138910D5
:100FE800F52FF62F00001030F400F40BF92F000055
:020FF8000800EF
:1010000083120313A601A41F062807280E28A3098C
:10101000A409A30A0319A40AA601A60A2308F30037
:101020002408F400F5018E30F8007808F600260850
:10103000F9007908F7000A168A11DF210A128A15C9
:10104000730883120313A3007408A4007508A50095
:10105000080073308400000883120313A000840A80
:101060000008A100840A0008A200840A0008A30066
:101070000310220D230DA4002408AD002D08031D2C
:10108000422843284C280030F6000030F50000309C
:10109000F4000030F3005429763084000008A000EA
:1010A000840A0008A100840A0008A200840A00083B
:1010B000A3000310220D230DA4002408AC002C086B
:1010C000031D63286428652843287330840000309A
:1010D0008004840A00308004840A80308004840AFA
:1010E0000030800473308400FF308005840AFF30B4
:1010F0008005840AFF308005840A00308005763040
:10110000840000308004840A00308004840A803027
:101110008004840A0030800476308400FF3080052B
:10112000840AFF308005840AFF308005840A00307D
:1011300080050030AB000030AA000030A90000306C
:10114000A8007F30AD02A0302C07A0002008AD021F
:101150002030A0002008AC000130A0000310A80D32
:10116000A90DAA0DAB0DA00BAE28763084000008A7
:10117000A000840A0008A100840A0008A200840AD2
:101180000008A300733084000008A400840A00084B
:10119000A500840A0008A600840A0008A700230806
:1011A0002702031DDD2822082602031DDD28210851
:1011B0002502031DDD2820082402031CE028E12865
:1011C0000429763084000008A000840A0008A100E9
:1011D000840A0008A200840A0008A3007330840077
:1011E00020088002840A2108031C210F8002840A3F
:1011F0002208031C220F8002840A2308031C230AEE
:101200008002033084022814733084000310800DA0
:10121000840A800D840A800D840A800D840384036F
:1012200084030130AC02031D16291729AC28AD1F19
:101230001A291B2935292D08803A9F3E0318212998
:1012400022292329432801300310AB0CAA0CA90C36
:10125000A80CFF3E031D24290130A0002008AD0783
:10126000031D3329342923294C2920302D02031C46
:101270003A293B29472943280130A0000310A80D33
:10128000A90DAA0DAB0DA00B3E290130AD022D0812
:10129000031D4B294C293C292B08F6002A08F50090
:1012A0002908F4002808F3000800831203134D08EE
:1012B000D3004E08D4004F08D5000310540D550D2F
:1012C000D6005608D9005008D3005108D40052085F
:1012D000D5000310540D550DD6005608D8005908F6
:1012E0000319732974298429580859020318792984
:1012F0007A298B295808D3005908D3021930530290
:10130000031C832984298B295008CD005108CE0065
:101310005208CF008A2A580803198F299029A0293A
:1013200059085802031895299629A1295908D3006C
:101330005808D30219305302031C9F29A029A12960
:101340008A2A0630D3005308D700CF1FA829A9291D
:10135000AA29D717D21FAD29AE29AF295717CE1703
:10136000FF30CD05FF30CE050030CF05D117FF305F
:10137000D005FF30D1050030D205580859020318B6
:10138000C229C329EF2901300310D00DD10DD20D90
:10139000FF3E031DC4290130D8025808590603191D
:1013A000D229D329E8290130D70257080739031D6C
:1013B000DA29DB29C329E82901300310CF0CCE0C30
:1013C000CD0CFF3E031DDD290130D3005308D907A2
:1013D00059085806031DED29EE29DC29202A590851
:1013E00058020318F429F529202A01300310CD0DE5
:1013F000CE0DCF0DFF3E031DF6290130D90258084E
:1014000059060319042A052A1A2A0130D702570857
:101410000739031D0C2A0D2AF5291A2A0130031059
:10142000D20CD10CD00CFF3E031D0F2A0130D3008B
:101430005308D80759085806031D1F2A202A0E2AC8
:10144000D71F232A242A342AFF30CD06FF30CE06A8
:10145000FF30CF060130CD07003003180130CE0732
:10146000003003180130CF07571F372A382A482A7F
:10147000FF30D006FF30D106FF30D2060130D00752
:10148000003003180130D107003003180130D207B3
:10149000D7014D08D0074E08031103184E0A03194F
:1014A000522AD1074F08031103184F0A0319592A6A
:1014B000D207D21F5C2A5D2A6F2AFF30D006FF3088
:1014C000D106FF30D2060130D007003003180130BA
:1014D000D107003003180130D207D701D70A5008CE
:1014E000F3005108F4005208F5005908D3005308DE
:1014F000F6005708D4005408F7000A168A11DF21B5
:101500000A128A15730883120313CD007408CE00E3
:101510007508CF00080083160313BB006130A000DC
:101520002008A9000A128A111B2E25303E06031935
:101530009A2A9B2AA72A3E08A0003B08840020087C
:10154000831380000130A0002008BB07922AAC0161
:10155000AD01AA01AB0183120313600884000A16CF
:101560008A110A200A128A150A168A15AC240A1250
:101570008A15031CBC2ABD2A032B83160313AC0156
:10158000AD010A30F3000030F400831603132D0878
:10159000F6002C08F5000A168A1530250A128A155D
:1015A000740883160313AD007308AC008312031391
:1015B000600884000A168A110A200A128A15D03E91
:1015C00083160313A000FF3003180030A100200889
:1015D000AC070318AD0A2108AD070130A0002008B0
:1015E00083120313E007600884000A168A110A2098
:1015F0000A128A150A168A15AC240A128A150318CB
:10160000022B032BC12A83120313600884000A16DD
:101610008A110A200A128A152E3A031D102B112B4B
:10162000632B831603132B170130A00020088312AD
:101630000313E00783160313BC01BD01512B0A30CD
:10164000F3000030F400831603133D08F6003C0855
:10165000F5000A168A1530250A128A1574088316B1
:101660000313BD007308BC008312031360088400D9
:101670000A168A110A200A128A15D03E831603130D
:10168000A000FF3003180030A1002008BC07031899
:10169000BD0A2108BD070130A000200883120313F2
:1016A000E0078312600884000A168A110A200A12D1
:1016B0008A150A168A15AC240A128A150318612B9A
:1016C000622B1F2B6B2B83160313BC01BD012B1642
:1016D0006B2B2B158F2B013083120313E007FF3088
:1016E000600784000A168A110A200A128A158316D6
:1016F0000313BE00A000A1012108003A0319812BA9
:10170000922A2008003A0319422D643A03198F2BBC
:10171000023A0319692B0F3A03198F2B922A0030D2
:101720002A05A00007302B05A10020082104031979
:101730009A2B9D2B0A128A116C2C2B1EA02BA12BED
:10174000A52B0630BC000030BD002908840083139F
:101750000008B800840A0008B900840A0008BA002A
:101760000330A0002008A9073808F3003908F40066
:101770003A08F5000030F6000030F7000030F800BD
:101780000A168A155D260A128A150318C82BC92B5A
:10179000E22B831603133808F3003908F4003A08E3
:1017A000F5000A168A11BE200A128A1573088316DC
:1017B0000313B8007408B9007508BA000330AA040E
:1017C0000030AB0483160313B601B7013A0839049D
:1017D00038040319EC2BED2BE72CB830840083136D
:1017E0000008A000840A0008A100840A0008A200E2
:1017F000840A0008A3000F300310A30CA20CA10C54
:10180000A00CFF3E031DFC2BFF302005A400003080
:101810002105A5002408823EB60025080318013ED4
:10182000FF3EB700FF30B6070318B70AFF30B7070F
:101830000330F3000030F4003708F6003608F500F6
:101840000A168A1530250A128A157408831603139E
:10185000B7007308B6000A3083120313A0000030EB
:10186000A10083160313370883120313A300831602
:101870000313360883120313A2000A168A11762175
:101880000A128A1583120313210883160313B70063
:1018900083120313200883160313B600B71F512CBD
:1018A000522C582CFF30B6070318B70AFF30B70781
:1018B0003603FF3A0A128A1545250A128A15831241
:1018C00003133D0883160313AE00831203133E086F
:1018D00083160313AF00831203133F088316031309
:1018E000B000380883120313AD00831603133908C0
:1018F00083120313AE00831603133A0883120313F3
:10190000AF00831603132E0883120313B00083164F
:1019100003132F0883120313B10083160313300837
:1019200083120313B2000A168A1124250A128A159B
:10193000831203132D0883160313AE0083120313BF
:101940002E0883160313AF00831203132F08831688
:101950000313B0002E08F3002F08F4003008F50040
:101960000030F6008030F7003F30F8000A168A1584
:101970005D260A128A150318BE2CBF2CC82CFF3016
:1019800083160313B6070318B70AFF30B707E72C0F
:10199000831603132E08F3002F08F4003008F50017
:1019A0000030F6002030F7004130F8000A168A15A2
:1019B0005D260A128A15031CDE2CDF2CE72C013071
:1019C00083160313B6070318B70A0030B707831648
:1019D00003133D08803AFF0080307F02031DF22C84
:1019E0000D303C020318F52CF62C2F2D8316031313
:1019F0003C080A128A1138260A128A158312031328
:101A00003D08CD003E08CE003F08CF0083160313EB
:101A1000380883120313D000831603133908831286
:101A20000313D100831603133A0883120313D20061
:101A30000A128A1555210A128A15831203134D08BA
:101A400083160313B800831203134E08831603137F
:101A5000B900831203134F0883160313BA008316C9
:101A600003133708803AFF0080307F02031D3A2DB0
:101A70000A30360203183F2D0A128A1121280A1251
:101A80008A1158280A128A11332E83120313C500B3
:101A9000C51F4B2D4C2DA72EC509C50A4508803AF8
:101AA000123E031C542D552D132E0330C000400848
:101AB000A9004508F500F601F51BF6036430F300B4
:101AC0000030F4000A168A15A7270A128A1574082E
:101AD00083120313A3007308A2000A30A000003091
:101AE000A1000A168A1176210A128A15831203139D
:101AF00020080A168A15D4240A128A15433E840047
:101B00000A168A110A200A128A1583120313AD00DD
:101B10000A168A110A200A128A15AE000A168A11BC
:101B20000A200A128A15AF000330C1004108A9003B
:101B30004508A200A301A21BA3036430A00000304B
:101B4000A1000A168A1176210A128A15831203133C
:101B500020080A168A15D4240A128A155E3E8400CB
:101B60000A168A110A200A128A1583120313B0007A
:101B70000A168A110A200A128A15B1000A168A1159
:101B80000A200A128A15B2000A168A1124250A129E
:101B90008A15831203132D08C2002E08C3002F08D4
:101BA000C4000330C0004008A9004508F500F60154
:101BB000F51BF6030A30F3000030F4000A168A150C
:101BC000A7270A128A1573080A168A15D4240A123E
:101BD0008A15283E84000A168A110A200A128A15DC
:101BE00083120313AD000A168A110A200A128A15FD
:101BF000AE000A168A110A200A128A15AF0042089E
:101C0000B0004308B1004408B2000A168A11242526
:101C10000A128A15831203132D08BD002E08BE0078
:101C20002F08BF00FF2F4508803A753E031C192E70
:101C30001A2E862E0330C0004008A9004508F50082
:101C4000F601F51BF6030A30F3000030F4000A1623
:101C50008A15A7270A128A1573080A168A15D4242A
:101C60000A128A15283E84000A168A110A200A12CE
:101C70008A1583120313AD000A168A110A200A126C
:101C80008A15AE000A168A110A200A128A15AF00B8
:101C90000330C1004108A9004508A200A301A21B0E
:101CA000A3030A30A0000030A1000A168A11762191
:101CB0000A128A158312031320080A168A15D424DF
:101CC0000A128A15433E84000A168A110A200A1253
:101CD0008A1583120313B0000A168A110A200A1209
:101CE0008A15B1000A168A110A200A128A15B20052
:101CF0000A168A1124250A128A15831203132D0845
:101D0000BD002E08BE002F08BF00FF2F0330C0000B
:101D10004008A90045080A168A15D4240A128A1513
:101D2000283E84000A168A110A200A128A15831294
:101D30000313BD000A168A110A200A128A15BE0072
:101D40000A168A110A200A128A15BF00FF2F4508B9
:101D5000803A123E031CAD2EAE2E6C2F0330C00015
:101D60004008A9004508F500F601F51BF6036430AC
:101D7000F3000030F4000A168A15A7270A128A1504
:101D8000740883120313A3007308A2000A30A00092
:101D90000030A1000A168A1176210A128A158312D0
:101DA000031320080A168A15D4240A128A151C3E29
:101DB00084000A168A110A200A128A158312031354
:101DC000AD000A168A110A200A128A15AE000A16F8
:101DD0008A110A200A128A15AF000330C100410897
:101DE000A9004508A200A301A21BA3036430A00020
:101DF0000030A1000A168A1176210A128A15831270
:101E0000031320080A168A15D4240A128A15373EAD
:101E100084000A168A110A200A128A1583120313F3
:101E2000B0000A168A110A200A128A15B1000A1691
:101E30008A110A200A128A15B2000A168A1124256C
:101E40000A128A15831203132D08C2002E08C3003C
:101E50002F08C4000330C0004008A9004508F50061
:101E6000F601F51BF6030A30F3000030F4000A1601
:101E70008A15A7270A128A1573080A168A15D42408
:101E80000A128A15013E84000A168A110A200A12D3
:101E90008A1583120313AD000A168A110A200A124A
:101EA0008A15AE000A168A110A200A128A15AF0096
:101EB0004208B0004308B1004408B2000A168A1173
:101EC00024250A128A15831203132D08BD002E083B
:101ED000BE002F08BF00FF2F4508803A753E031C47
:101EE000722F732FDF2F0330C0004008A900450870
:101EF000F500F601F51BF6030A30F3000030F4009C
:101F00000A168A15A7270A128A1573080A168A154F
:101F1000D4240A128A15013E84000A168A110A2066
:101F20000A128A1583120313AD000A168A110A20B9
:101F30000A128A15AE000A168A110A200A128A1598
:101F4000AF000330C1004108A9004508A200A30169
:101F5000A21BA3030A30A0000030A1000A168A11B8
:101F600076210A128A158312031320080A168A158D
:101F7000D4240A128A151C3E84000A168A110A20EB
:101F80000A128A1583120313B0000A168A110A2056
:101F90000A128A15B1000A168A110A200A128A1535
:101FA000B2000A168A1124250A128A158312031315
:101FB0002D08BD002E08BE002F08BF00FF2F0330E4
:101FC000C0004008A90045080A168A15D4240A1240
:101FD0008A15013E84000A168A110A200A128A15FF
:101FE00083120313BD000A168A110A200A128A15E9
:101FF000BE000A168A110A200A128A15BF000800BC
:10200000FF1B0A2883137F1883170008840A03190B
:10201000FF0A080010308A000408840A820700348E
:10202000003480343F340034203441340034C83428
:10203000423400347A34443440341C34463450340E
:10204000C3344734243474344934973418344B340B
:10205000BC34BE344C346B346E344E3403341534DB
:1020600050347934AD346034F3344934713400344D
:1020700080343F34CD34CC343D34D73423343C34F5
:10208000123483343A34B734D1343834C634273434
:102090003734383486343534C034D6343334CC34E1
:1020A0002B343234703489343034E734DB342E341A
:1020B000E5343C341E344234A2340D34013400344F
:1020C000003400340A340034003400346434003402
:1020D00000340034E834033400340034103427343E
:1020E00000340034A03486340134003440344234A7
:1020F0000F34003480349634983400340034E134A2
:10210000F53405340034CA349A343B34563431340F
:1021100020342034203456343234203420342034D7
:1021200063346F346E347434613464346F347234B5
:1021300020340A340034253432342E3431346634B9
:10214000203420342034253432342E343134663473
:10215000203420342034253464340034563431346F
:102160002034203420345634323420342034203487
:1021700063346F346E34743461340034750874041D
:1021800073040319C428C528C7288030F506080041
:1021900083120313A401A501200821040319D128E7
:1021A000D2280929A601A60AE02801300310A00DB3
:1021B000A10DFF3E031DD6280130F9007908A607BE
:1021C000A11FE328E428D52801300310A40DA50D94
:1021D000FF3E031DE52821082302031DF1282008E6
:1021E0002202031CF428F528FC282008A20221085A
:1021F000031CA303A302241401300310A10CA00CA0
:10220000FF3E031DFD280130A602031D08290929F0
:10221000E4282508A1002408A00008000030F700E9
:102220000030F6000030F5000030F4008312031394
:10223000230822042104200403191F2920296D29C1
:10224000F801F80A30290130F3000310A00DA10DA8
:10225000A20DA30DF30B25290130F3007308F80735
:10226000A31F3329342923290130F3000310F40D6F
:10227000F50DF60DF70DF30B362923082702031D84
:102280004B2922082602031D4B2921082502031D84
:102290004B2920082402031C4E294F295E292008BF
:1022A000A4022108031C210FA5022208031C220FEF
:1022B000A6022308031C230FA70274140130031085
:1022C000A30CA20CA10CA00CFF3E031D5F29013042
:1022D000F802031D6C296D2934297708A3007608BC
:1022E000A2007508A1007408A0000800831203135F
:1022F000A601A11F7C297D298429A009A109A00A82
:102300000319A10AA601A60AA31F872988299129D2
:10231000A209A309A20A0319A30A0130A4002408F0
:10232000A606A701A80120082104031998299929C4
:10233000D029A501A50AA72901300310A00DA10DE0
:10234000FF3E031D9D290130A4002408A507A11FFD
:10235000AA29AB299C2901300310A70DA80DFF3E27
:10236000031DAC2921082302031DB82920082202DD
:10237000031CBB29BC29C3292008A2022108031C75
:10238000A303A302271401300310A10CA00CFF3EED
:10239000031DC4290130A502031DCF29D029AB2973
:1023A00026080319D429D529DA29A709A809A70AD3
:1023B0000319A80A2808A1002708A0000800760829
:1023C0000319E329E429EB29750874047304031D38
:1023D000EA29EB29002A0030F3000030F400003035
:1023E000F500602A013083120313A0002008F607CD
:1023F00001300310F50CF40CF30CFF3E031DF9291A
:10240000FE307505031D052A062AF2291F2A013010
:1024100083120313A0002008F6070130F3070030F1
:1024200003180130F407003003180130F5070130BC
:102430000310F50CF40CF30CFF3E031D182AFF30BB
:102440007505031D242A252A072A302A0130F602A1
:1024500001300310F30DF40DF50DFF3E031D292A85
:10246000F41B332A342A3A2A023076020318392A16
:102470003A2A262A76183D2A3E2A442AFF30F305B6
:102480007F30F405FF30F5050310F60C7608831253
:102490000313A000A101A20110300310A00DA10D93
:1024A000A20DFF3E031D4D2A2008F3042108F40469
:1024B0002208F504770803195E2A5F2A602AF517B7
:1024C0000800831203134608CA004708CB004808D7
:1024D000CC0003104B0D4C0DCD004D08D30053081C
:1024E000031D732A742A7D2A0030C9000030C800F9
:1024F0000030C7000030C600EC2A4608CA00470872
:10250000CB004808CC0017300310CC0CCB0CCA0C05
:10251000FF3E031D842A4A08CD004D08CE00C71790
:10252000FF30C605FF30C7050030C8054608CF009C
:102530004708D0004808D100D2018E30D302D31F03
:10254000A22AA32ABD2A5308803A8F3E0318A92A3B
:10255000AA2AAB2A742A01300310D20CD10CD00C59
:10256000CF0CFF3E031DAC2A0130CA004A08D30736
:10257000031DBB2ABC2AAB2AD42A18305302031CE1
:10258000C22AC32ACF2A742A0130CA000310CF0DF1
:10259000D00DD10DD20DCA0BC62A0130D30253087B
:1025A000031DD32AD42AC42A4E080319D82AD92AAB
:1025B000E42ACF09D009D109D209CF0A0319D00AD8
:1025C0000319D10A0319D20A5208C9005108C800D8
:1025D0005008C7004F08C6000800F5018312031316
:1025E000A31FF32AF42A012BA009A109A209A30918
:1025F000A00A0319A10A0319A20A0319A30AF501E3
:10260000F50AA71F042B052B142BA409A509A6095D
:10261000A709A40A0319A50A0319A60A0319A70AF8
:102620000130F3007308F5060030F9000030F800BF
:102630000030F7000030F6002308220421042004B3
:102640000319232B242B712BF401F40A342B0130B2
:10265000F3000310A00DA10DA20DA30DF30B292B68
:102660000130F3007308F407A31F372B382B272BF7
:102670000130F3000310F60DF70DF80DF90DF30B13
:102680003A2B23082702031D4F2B22082602031D85
:102690004F2B21082502031D4F2B20082402031C69
:1026A000522B532B622B2008A4022108031C210F5C
:1026B000A5022208031C220FA6022308031C230FD5
:1026C000A702761401300310A30CA20CA10CA00CDD
:1026D000FF3E031D632B0130F402031D702B712B91
:1026E000382B75080319752B762B812BF609F70902
:1026F000F809F909F60A0319F70A0319F80A031980
:10270000F90A7908A3007808A2007708A1007608E2
:10271000A0000800730883120313A0007408A1002E
:102720007508A2000310210D220DA3002308A900A3
:102730002908031D9C2B9D2BA62B0030F600003092
:10274000F5000030F4000030F300462C7608A000BD
:102750007708A1007808A2000310210D220DA30024
:102760002308A8002808031DB62BB72BB82B9D2BD8
:10277000F417FF30F305FF30F4050030F505F717C7
:10278000FF30F605FF30F7050030F8050030A700F0
:102790000030A6000030A5000030A4007F30A90260
:1027A00098302807A0002008A9021830A0002008AF
:1027B000A8000130A0000310A40DA50DA60DA70DC3
:1027C000A00BDB2B78087502031DEC2B7708740235
:1027D000031DEC2B76087302031CEF2BF02BFB2B55
:1027E0007608F3027708031C770FF4027808031CBD
:1027F000780AF502241401300310F30DF40DF50DE1
:10280000FF3E031DFC2B0130A802031D082C092CE0
:10281000D92BA91F0C2C0D2C272C2908803A973E68
:102820000318132C142C152C9D2B01300310A70C0E
:10283000A60CA50CA40CFF3E031D162C0130A00015
:102840002008A907031D252C262C152C3E2C1830FA
:102850002902031C2C2C2D2C392C9D2B0130A0007F
:102860000310A40DA50DA60DA70DA00B302C013053
:10287000A9022908031D3D2C3E2C2E2C2708F6000A
:102880002608F5002508F4002408F3000800831248
:1028900003132808AC002908AD002A08AE002B0855
:1028A000AF0006300310AC0DAD0DAE0DAF0DFF3E09
:1028B000031D522C2F08A3002E08A2002D08A100F2
:1028C0002C08A0002808B0002908B1002A08B2008E
:1028D0002B08B30006300310B00DB10DB20DB30DCF
:1028E000FF3E031D6B2C0030B4000930B5003D30B5
:1028F000B6000030B7003008B4023108031C310FB5
:10290000822C832CB5023208031C320F882C892CB0
:10291000B6023308031C330F8E2C8F2CB7023708F6
:10292000A7003608A6003508A5003408A4000A163A
:102930008A11ED220A168A11831203132108B900A5
:102940002008B80001303902003003193802031C96
:10295000AA2CAB2C072D2808AC002908AD002A08AA
:10296000AE002B08AF0004300310AC0DAD0DAE0D62
:10297000AF0DFF3E031DB42C2F08A3002E08A200AC
:102980002D08A1002C08A0002808B0002908B100DB
:102990002A08B2002B08B30004300310B00DB10DAB
:1029A000B20DB30DFF3E031DCD2C0030B400093035
:1029B000B5003D30B6000030B7003008B402310831
:1029C000031C310FE42CE52CB5023208031C320F36
:1029D000EA2CEB2CB6023308031C330FF02CF12C3D
:1029E000B7023708A7003608A6003508A500340846
:1029F000A4000A168A11ED220A168A118312031303
:102A00002108B9002008B8008316031318150130F7
:102A1000831239020030031938020318102D112DCA
:102A2000232D3808831603139900181283120313F9
:102A300098178316031387170713831203131816A7
:102A40008316031398160800831203132D08B3008E
:102A50002E08B4002F08B5000310340D350DB60054
:102A60003608B7003708031D362D372D3E2D0030B0
:102A7000AD000030AE000030AF00082E3008B300CB
:102A80003108B4003208B5000310340D350DB6001E
:102A90003608BC003C08031D4E2D4F2D562D00302E
:102AA000AD000030AE000030AF00082E3C087B3E89
:102AB000B3003308B7072D08B3002E08B4002F0861
:102AC000B50010300310B50CB40CB30CFF3E031D61
:102AD000622D3308B6003608BC003008B300310858
:102AE000B4003208B50010300310B50CB40CB30CB0
:102AF000FF3E031D742D3308B6003608BC06803037
:102B0000B3003308BC05AE17B117FF30B005FF3076
:102B1000B1050030B2050030B8000030B900003017
:102B2000BA000730B3003308BB002D1C982D992D37
:102B3000A92D3008B807310803110318310A031909
:102B4000A22DB907320803110318320A0319A92D5F
:102B5000BA0701300310AF0CAE0CAD0CFF3E031DE5
:102B6000AA2D01300310B00DB10DB20DFF3E031DB3
:102B7000B22D0130BB02031DBE2DBF2D952D093096
:102B8000B3003308BB002D1CC62DC72DD72D300830
:102B9000B807310803110318310A0319D02DB907FA
:102BA000320803110318320A0319D72DBA0701306E
:102BB0000310AF0CAE0CAD0CFF3E031DD82D013041
:102BC0000310BA0CB90CB80CFF3E031DE02D013008
:102BD000BB02031DEC2DED2DC32D3808F300390881
:102BE000F4003A08F5003708B3003308F6003C0853
:102BF000B4003408F7000A168A11DF210A168A1178
:102C0000730883120313AD007408AE007508AF009B
:102C100008000A168A15BE240A168A110A168A1591
:102C200096240A168A11003083120313AB00003079
:102C3000AA002530A9008030A8000A168A1147246E
:102C40000A168A110A168A15D1250A168A110A1639
:102C50008A157F240A168A1100300A168A11032762
:102C60000A168A1183120313E9006908EC00013087
:102C70000A168A1103270A168A1183120313E90020
:102C8000690883160313C500831203136C080A1620
:102C90008A15A6250A168A11831203133D08831686
:102CA0000313C200831203133E0883160313C300E9
:102CB000831203133F0883160313C40045080A1642
:102CC0008A15A6250A168A11831203133D08831656
:102CD0000313BF00831203133E0883160313C000BF
:102CE000831203133F0883160313C1007730F400E7
:102CF0008030F5000A168A157B250A168A118C3059
:102D000083120313E9006908E000831603134208E5
:102D100083120313E1008316031343088312031382
:102D2000E20083160313440883120313E30083169F
:102D300003133F0883120313E400831603134008B0
:102D400083120313E5008316031341088312031350
:102D5000E6006D08EA00EB016A08E7006B08E8008E
:102D6000C6300A128A158B220A168A11C630F40060
:102D70000030F5000A168A157B250A168A110D30D7
:102D80000A168A15A0240A168A110A300A168A150C
:102D9000A0240A168A110A168A157F240A168A1197
:102DA000F701F70A01300A168A1555250A168A1105
:102DB0009F30F6008030F7000A168A150D270A1694
:102DC0008A11F70102300A168A1555250A168A114A
:102DD000C630F6000030F7000A168A150D270A16CD
:102DE0008A11033083120313EB008A30EA00553056
:102DF000E900E90BF92EEA0BF92EEB0BF92E2C2E3C
:102E00000A128A110C28F500BB2F83160313051430
:102E1000831603170814C330831203139F05EF2F83
:102E20008316031385148316031788148312031360
:102E30001F08C33904389F00EF2F831603130515AD
:102E4000831603170815831203131F08C3390838A4
:102E50009F00EF2F8316031385158316031788151C
:102E6000831203131F08C3390C389F00EF2F8316FA
:102E700003138516831603170816831203131F08FE
:102E8000C33910389F00EF2F8316031309148316DC
:102E900003178816831203131F08C33914389F00C1
:102EA000EF2F8316031309158316031708178312D0
:102EB00003131F08C33918389F00EF2F831603131D
:102EC0008915831603178817831203131F08C33944
:102ED0001C389F00EF2F8316031306158316031764
:102EE0000914831203131F08C33920389F00EF2FE2
:102EF000831603138615831603178914831203138D
:102F00001F08C33924389F00EF2F8316031386143C
:102F1000831603170915831203131F08C3392838B2
:102F20009F00EF2F831603130616831603178915C8
:102F3000831203131F08C3392C389F00EF2F831609
:102F400003130614831603170916831203131F08AD
:102F5000C33930389F00EF2F83160313861683166C
:102F600003178916831203131F08C33934389F00CF
:102F7000EF2F0030FF2F7508F300F4017408003ABA
:102F80000319C32FB92F7308003A0319052F013A0B
:102F90000319102F033A03191D2F013A03192A2F81
:102FA000073A0319372F013A0319442F033A03193B
:102FB000512F013A03195E2F0F3A03196B2F013A73
:102FC0000319782F033A0319852F013A0319922F19
:102FD000073A03199F2F013A0319AC2FB92F1F1479
:102FE0000630F300F30BF22F0000831203139F143B
:102FF0009F1CFB2FFC2FFD2FF82F1F101E08080011
:1038FE0001300A168A15EB240A168A15080083125F
:10390E0003138C1E8B2C8C2C862C1A08080064003A
:10391E008001840A04060319003404068F2C8312D6
:10392E0003131F083F3940389F00831603139F016E
:10393E000800F30083160313981CA62CA72CA12CA9
:10394E0073088312031399000800F400F3013A3050
:10395E0074020318B32CB42CBC2C30307402031C2C
:10396E00B92CBA2CBC2CF301F30A730C0800831685
:10397E0003138601850189018316031788018901C6
:10398E0083120313860189010B17831603138C16FA
:10399E00831203138C128B17080083120313AC00CF
:1039AE00AB012C1CDB2CDC2CE02C2908AA002A08ED
:1039BE00AB070310A90D0310AC0C2C08031DE82C4B
:1039CE00E92CD82C2B080800F600831203130910DB
:1039DE0076080A168A15CF260A168A15831203133D
:1039EE008914F92CFA2C0000831203138910FF2C72
:1039FE00002D00000330F5009730F400F40B052D78
:103A0E00F50B052D0A2D0800831203135C085B04C9
:103A1E005A040319132D142D162D8030DC065D0863
:103A2E00CD005E08CE005F08CF005A08D0005B08BC
:103A3E00D1005C08D2000A128A1555210A168A1581
:103A4E00831203134D08DA004E08DB004F08DC002A
:103A5E000800F701F801731C352D362D3C2D750825
:103A6E00F7070318F80A7608F80701300310F50D6A
:103A7E00F60DFF3E031D3D2D01300310F40CF30C2B
:103A8E00FF3E031D442D73087404031D4F2D502D4E
:103A9E00322D7808F4007708F30008008312031320
:103AAE00A0002003031D5C2D5D2D692D7708803E3F
:103ABE00F8007808A10021080A168A15EB240A16C8
:103ACE008A157A2D02302006031D6E2D6F2D7A2D4C
:103ADE007708C03EF8007808A10021080A168A155A
:103AEE00EB240A168A150800F701922D7708740741
:103AFE00840075080318750AFF000A168A11002043
:103B0E000A168A150A168A15A0240A168A15013075
:103B1E00F6007608F707770874078400750803180F
:103B2E00750A83120313FF000A168A1100200A1663
:103B3E008A15003A031DA42DA52D7D2D0800831294
:103B4E000313C2009030AD00A030AE003C30AF0089
:103B5E004208C000C1014008A3004108A4000A1297
:103B6E008A1500200A168A15831203132308B00043
:103B7E002408B1002508B2000A168A1124250A1657
:103B8E008A15831203132D08BD002E08BE002F08C0
:103B9E00BF000800831203130910891000300A16A3
:103BAE008A15CF260A168A154130F800EE30F70036
:103BBE00F70BDF2DF80BDF2D000002300A168A15E9
:103BCE00EB240A168A1538300A168A15EB240A16C3
:103BDE008A150C300A168A15EB240A168A15063039
:103BEE000A168A15EB240A168A1508008312031387
:103BFE008C1E022E032E232E8C120A168A15862454
:103C0E000A168A15F0007008FA002B307A06031D8A
:103C1E00112E122E192E0130F0007008831203138C
:103C2E00ED07232E2D307A06031D1E2E1F2E232E5A
:103C3E00013083120313ED0272088A00710E8300A5
:103C4E00FE0E7E0E09008E30F8007808F9003C2E2C
:103C5E0001300310A60CA50CA40CA30CFF3E031DF3
:103C6E00302E0130F8007808F907FF308312031365
:103C7E002605031D432E442E2F2E2308F300240861
:103C8E00F4002508F5007908F8007808F600F70129
:103C9E000A168A11DF210A168A1573088312031376
:103CAE00A3007408A4007508A5000800F51F602E77
:103CBE00612E6E2E7308003CF3007408031C740F03
:103CCE00003CF4007508031C750F803CF500F81FCE
:103CDE00712E722E7F2E7608003CF6007708031C9C
:103CEE00770F003CF7007808031C780F803CF80033
:103CFE008030F5068030F80678087502031D8D2E8B
:103D0E0077087402031D8D2E760873020318902E09
:103D1E00912E932E0310942E03140800730874042E
:103D2E0003199A2E9B2ECA2EF801F80AA92E0130DD
:103D3E000310F30DF40DFF3E031D9F2E0130F7000F
:103D4E007708F807F41FAC2EAD2E9E2E740876025F
:103D5E00031DB32E73087502031CB62EB72EBD2E8F
:103D6E007308F5027408031CF603F6020130031003
:103D7E00F40CF30CFF3E031DBE2E0130F802031DA2
:103D8E00C92ECA2EAD2E7608F4007508F300080071
:103D9E00F300731CD32ED42ED82E831203130614C5
:103DAE00DB2E831203130610F31CDE2EDF2EE12E04
:103DBE008614E22E8610731DE52EE62EE82E0615CD
:103DCE00E92E0611F31DEC2EED2EEF2E8615F02E9C
:103DDE008611731EF32EF42EF62E0616F72E0612ED
:103DEE00F31EFA2EFB2EFD2E8616FE2E8612731F46
:103DFE00012F022F042F0617052F0613F31F082F6E
:103E0E00092F0B2F86170C2F86130800F801F901C6
:103E1E00322F78087607A1007708A0000318A00AB1
:103E2E00F81F1A2FA003831203132008A2002208E2
:103E3E00FF00210884000A168A1100200A168A152E
:103E4E000A128A11E1270A168A150130F80703189B
:103E5E00F90A0030F9077808760783120313A100D8
:103E6E007708A0000318A00AF81F3E2FA0038312A4
:103E7E0003132008A2002208FF00210884000A165E
:103E8E008A1100200A168A15003A031D4F2F502F53
:103E9E00102F0800831203132B082A042904280468
:103EAE0003195A2F5B2F9E2FB001B00A6B2F0130D2
:103EBE00F9000310A80DA90DAA0DAB0DF90B602F7B
:103ECE000130F9007908B007AB1F6E2F6F2F5E2FF0
:103EDE002B082F02031D7D2F2A082E02031D7D2F76
:103EEE0029082D02031D7D2F28082C02031C802F6C
:103EFE00812F8F2F2808AC022908031C290FAD0231
:103F0E002A08031C2A0FAE022B08031C2B0FAF022C
:103F1E0001300310AB0CAA0CA90CA80CFF3E031D1C
:103F2E00902F0130B002031D9D2F9E2F6F2F2F0853
:103F3E00AB002E08AA002D08A9002C08A800080026
:103F4E00F901F61FAB2FAC2FB32FF509F609F50AC1
:103F5E000319F60AF901F90AF41FB62FB72FBC2F71
:103F6E00F309F409F30A0319F40A73087404031924
:103F7E00C12FC22FF12FF801F80AD02F01300310F4
:103F8E00F30DF40DFF3E031DC62F0130F700770829
:103F9E00F807F41FD32FD42FC52F74087602031DF4
:103FAE00DA2F73087502031CDD2FDE2FE42F730842
:103FBE00F5027408031CF603F60201300310F40C2C
:103FCE00F30CFF3E031DE52F0130F802031DF02F09
:103FDE00F12FD42F79080319F52FF62FFB2FF509A2
:103FEE00F609F50A0319F60A7608F4007508F300C7
:023FFE000800B9
:04400E00D4E0FFFFFC
:00000001FF
