:020000040000FA
:060000000A128A110C280F
:10000800FE00030EF1000A08F2000A128A11432CBE
:100018000A128A110F2883120313BC01BD01BE0105
:10002800BF01C001C101C201C301C401C5018301EF
:100038000A128A11832A83120313B1002730A900F8
:100048002908AC00F2282530320603192C282D285F
:1000580039283208A9003108840029088313800050
:100068000130A9002908B107F228AD010130A6071F
:10007800FF30260784000A128A1116240A128A11F0
:10008800B200A900AA012A08003A03194C28F2284C
:100098002908003A03190429643A031957280D3A24
:1000A80003195728F2282C08840083130008AF008E
:1000B800840A0008B0000230A9002908AC07B01F64
:1000C8006628672870280330A9002908AD04AF09FD
:1000D800B009AF0A0319B00AB201B20A3208A9007E
:1000E8002907013E84000A128A1116240A128A116D
:1000F800AA000A128A1116240A128A11AB002B08C8
:100108003002031D89282A082F0203188C288D28FD
:100118008E2898280130A9002908B2070530320630
:10012800031D9728982872282D08033903199D283C
:100138009E28A9282D30A900310884002908831396
:1001480080000130A9002908B1073208A900290850
:10015800AE00E9280A30A0000030A1002E08A9004E
:100168002907013E84000A128A1116240A128A11EC
:10017800F3000A128A1116240A128A11F4003008B0
:10018800F6002F08F5000A128A114E230A128A1166
:10019800740883120313A3007308A2000A128A11B9
:1001A800D0230A128A11831203132008303EAA00B2
:1001B8002A08B2003208A9003108840029088313EC
:1001C80080000130A9002908B107FF30A9002908DB
:1001D800AE072E0A031DF128F228AE280130A60723
:1001E800FF30260784000A128A1116240A128A117F
:1001F800A9002908B2003208031D03290429272869
:100208003108840083138001080083120313270830
:10021800AB002808AC002908AD002A08AE0006305B
:100228000310AB0DAC0DAD0DAE0DFF3E031D142933
:100238002E08F6002D08F5002C08F4002B08F30012
:100248002708AF002808B0002908B1002A08B20022
:1002580006300310AF0DB00DB10DB20DFF3E031DFA
:100268002D290030B3000930B4003D30B50000300E
:10027800B6002F08B3023008031C300F4429452963
:10028800B4023108031C310F4A294B29B502320840
:10029800031C320F50295129B6023608FA003508D6
:1002A800F9003408F8003308F7000A128A11E62129
:1002B8000A128A11740883120313B8007308B7006E
:1002C80001303802003003193702031C6C296D29EC
:1002D800C9292708AB002808AC002908AD002A085E
:1002E800AE0004300310AB0DAC0DAD0DAE0DFF3EEE
:1002F800031D76292E08F6002D08F5002C08F400B9
:100308002B08F3002708AF002808B0002908B1001F
:100318002A08B20004300310AF0DB00DB10DB20DB4
:10032800FF3E031D8F290030B3000930B4003D3073
:10033800B5000030B6002F08B3023008031C300F98
:10034800A629A729B4023108031C310FAC29AD290D
:10035800B5023208031C320FB229B329B602360897
:10036800FA003508F9003408F8003308F7000A12D3
:100378008A11E6210A128A11740883120313B8003D
:100388007308B70083160313181501308312380257
:100398000030031937020318D229D329E529370871
:1003A80083160313990018128312031398178316E0
:1003B80003138717071383120313181683160313DF
:1003C8009816080083120313A201F61FEC29ED29E1
:1003D800FA29F309F409F509F609F30A0319F40AE5
:1003E8000319F50A0319F60AA201A20AFA1FFD2940
:1003F800FE290D2AF709F809F909FA09F70A031974
:10040800F80A0319F90A0319FA0A0130A0002008AA
:10041800A2060030A6000030A5000030A40000307D
:10042800A300760875047404730403191C2A1D2A92
:100438006A2AA101A10A2D2A0130A0000310F30D98
:10044800F40DF50DF60DA00B222A0130A0002008AE
:10045800A107F61F302A312A202A0130A0000310F4
:10046800A30DA40DA50DA60DA00B332A76087A02BC
:10047800031D482A75087902031D482A7408780262
:10048800031D482A73087702031C4B2A4C2A5B2A4F
:100498007308F7027408031C740FF8027508031C2C
:1004A800750FF9027608031C760FFA02231401303F
:1004B8000310F60CF50CF40CF30CFF3E031D5C2A3C
:1004C8000130A102031D692A6A2A312A2208031968
:1004D8006E2A6F2A7A2AA309A409A509A609A30ADC
:1004E8000319A40A0319A50A0319A60A2608F6007F
:1004F8002508F5002408F4002308F30008000A1270
:100508008A119B240A128A110A128A11D7240A1204
:100518008A11003083120313AA000030A900253085
:10052800A8008030A7000A128A1109210A128A112C
:100538000A128A1103230A128A110A128A11E9245B
:100548000A128A11253083120313B9003908A6004C
:100558003C08BA00BB013A08A7003B08A8003E3097
:100568000A128A111F200A128A110B30F4008030F7
:10057800F5000A128A1170240A128A110D300A1223
:100588008A11CB240A128A110A300A128A11CB2442
:100598000A128A113E30F4000030F5000A128A115E
:1005A80070240A128A1109300A128A11CB240A12FD
:1005B8008A11831203133D080A128A11CB240A12E6
:1005C8008A110D300A128A11CB240A128A110A30B4
:1005D8000A128A11CB240A128A11063083120313D5
:1005E800BB001330BA00AD30B900B90BF92ABA0B09
:1005F800F92ABB0BF92AA62A0A128A110C280030FC
:100608000A128A1192230A128A111A30F500F83058
:10061800F400F40B0D2BF50B0D2B000030300A12F3
:100628008A1192230A128A110730F5007D30F400EE
:10063800F40B1C2BF50B1C2B30300A128A11922359
:100648000A128A110F30F5004730F400F40B2A2BF8
:10065800F50B2A2B2F2B30300A128A1192230A12FB
:100668008A1138300A128A1192230A128A11083024
:100678000A128A1192230A128A1101300A128A1167
:1006880092230A128A1106300A128A1192230A1238
:100698008A110800F801F901730874040319552B2D
:1006A800562B8D2BFA01FA0A642B01300310F30D37
:1006B800F40DFF3E031D5A2B0130F7007708FA07A7
:1006C800F41F672B682B592B01300310F80DF90D17
:1006D800FF3E031D692B74087602031D752B7308F2
:1006E8007502031C782B792B802B7308F50274088C
:1006F800031CF603F602781401300310F40CF30C13
:10070800FF3E031D812B0130FA02031D8C2B8D2B1C
:10071800682B7908F4007808F3000800F300731CCC
:10072800962B972B9B2B8312031306149E2B831255
:1007380003130610F31CA12BA22BA42B8614A52BA4
:100748008610731DA82BA92BAB2B0615AC2B0611F5
:10075800F31DAF2BB02BB22B8615B32B8611731E4E
:10076800B62BB72BB92B0616BA2B0612F31EBD2BC8
:10077800BE2BC02B8616C12B8612731FC42BC52B0C
:10078800C72B0617C82B0613F31FCB2BCC2BCE2B4E
:100798008617CF2B86130800831203132008210421
:1007A8000319D72BD82B072CA501A50AE62B013056
:1007B8000310A00DA10DFF3E031DDC2B0130A4008A
:1007C8002408A507A11FE92BEA2BDB2B210823020C
:1007D800031DF02B20082202031CF32BF42BFA2B09
:1007E8002008A2022108031CA303A302013003105E
:1007F800A10CA00CFF3E031DFB2B0130A502031D1D
:10080800062C072CEA2B2308A1002208A0000800C8
:10081800FF1B162C83137F1883170008840A0319FB
:10082800FF0A080004308A000408840A820700349A
:10083800013400340A34003464340034E8340334B6
:1008480010342734563431342034203420342034C2
:1008580020342034563432342034203420342034A8
:100868002034203463346F346E3474346134643427
:100878006F347234203400342534643400348312E5
:1008880003138C1E482C492C692C8C120A128A11CD
:10089800E1240A128A11F000700883120313BD00C4
:1008A8003D0888002B303D06031D5B2C5C2C612C19
:1008B8000130F0007008BC07692C2D303D06031D7F
:1008C800662C672C692C0130BC0272088A00710EF4
:1008D8008300FE0E7E0E0900F701872C7708740747
:1008E800840075080318750AFF000A128A110C247F
:1008F8000A128A110A128A11CB240A128A110130AB
:10090800F6007608F7077708740784007508031857
:10091800750A83120313FF000A128A110C240A12A3
:100928008A11003A031D992C9A2C722C0800831600
:10093800031386018901880185018316031788013D
:1009480089018312031385018601880189010B1728
:10095800831603138C16831203138C128B1708004B
:10096800F600831203130910891476080A128A11F3
:1009780092230A128A110730F5007D30F400F40B37
:10098800C32CF50BC32C8312031389100800F30042
:1009980083160313981CD12CD22CCC2C73088312E9
:1009A800031399000800831203131F083F394038C6
:1009B8009F00831603139F010800831203138C1EE4
:1009C800E62CE72CE12C1A08080001300A128A11DB
:0809D800B4240A128A11080080
:04400E00D4E0FFFFFC
:00000001FF
