:020000040000FA
:100000000A128A11F02F00308A000408840A82073D
:100010000034013400340A34003464340034E834E9
:10002000033410342734563431342034203420340F
:1000300020342034203456343234203420342034D8
:1000400020342034203463346F346E34743461349B
:1000500064346F3472342034003425346434003412
:10071C0001300A128A11C4230A128A1108008312AA
:10072C0003138C1E9A2B9B2B952B1A0808008312F3
:10073C0003131F083F3940389F00831603139F0192
:10074C000800F00083160313981CAD2BAE2BA82BBE
:10075C007008831203139900080083160313860193
:10076C008901880185018316031788018901831289
:10077C00031385018601880189010800F3008312A7
:10078C0003130910891473080A128A1137240A12E8
:10079C008A110730F2007D30F100F10BD32BF20BF4
:1007AC00D32B8312031389100800F200F301EF2BF3
:1007BC007308720784000A128A1103200A128A1124
:1007CC000A128A11A7230A128A110130F10071084A
:1007DC00F3077308720784000A128A1103200A12A5
:1007EC008A11003A031DFB2BFC2BDE2B080078082A
:1007FC0079040319022C032C322CFD01FD0A112C57
:10080C0001300310F80DF90DFF3E031D072C0130CC
:10081C00FC007C08FD07F91F142C152C062C7908FC
:10082C007B02031D1B2C78087A02031C1E2C1F2C28
:10083C00252C7808FA027908031CFB03FB02013013
:10084C000310F90CF80CFF3E031D262C0130FD02A1
:10085C00031D312C322C152C7B08F9007A08F8007A
:10086C000800F000701C3B2C3C2C402C8312031312
:10087C000614432C831203130610F01C462C472C31
:10088C00492C86144A2C8610701D4D2C4E2C502C45
:10089C000615512C0611F01D542C552C572C861571
:1008AC00582C8611701E5B2C5C2C5E2C06165F2C53
:1008BC000612F01E622C632C652C8616662C861292
:1008CC00701F692C6A2C6C2C06176D2C0613F01FEC
:1008DC00702C712C732C8617742C86130800F50160
:1008EC00F6017008710403197C2C7D2CB42CF701D3
:1008FC00F70A8B2C01300310F00DF10DFF3E031D98
:10090C00812C0130F4007408F707F11F8E2C8F2C0A
:10091C00802C01300310F50DF60DFF3E031D902CBD
:10092C0071087302031D9C2C70087202031C9F2C0F
:10093C00A02CA72C7008F2027108031CF303F3021D
:10094C00751401300310F10CF00CFF3E031DA82CA4
:10095C000130F702031DB32CB42C8F2C7608F10058
:10096C007508F000080000300A128A1137240A12A8
:10097C008A111A30F200F830F100F10BC32CF20B93
:10098C00C32C000030300A128A1137240A128A1143
:10099C000730F2007D30F100F10BD22CF20BD22C8F
:1009AC0030300A128A1137240A128A110F30F200E1
:1009BC004730F100F10BE02CF20BE02CE52C303041
:1009CC000A128A1137240A128A1138300A128A1133
:1009DC0037240A128A1108300A128A1137240A1293
:1009EC008A1101300A128A1137240A128A11063030
:1009FC000A128A1137240A128A1108000A128A1163
:100A0C00B3230A128A110A128A119D230A128A111F
:100A1C00003083120313A9000030A8002530A70072
:100A2C008030A6000A128A112E260A128A110A1286
:100A3C008A11B9240A128A110A128A118E230A12F7
:100A4C008A11831203138C1E2C2D2D2D372D0A1277
:100A5C008A1195230A128A1183120313B6003608E1
:100A6C00BA002B303A06031D3C2D3D2D422D013092
:100A7C00B6003608B9074A2D2D303A06031D472D0E
:100A8C00482D4A2D0130B9022530B6003608A00099
:100A9C003908B700B8013708A1003808A2003B306C
:100AAC000A128A1108270A128A110B300A128A11AB
:100ABC00DB230A128A110D300A128A11A7230A129B
:100ACC008A110A300A128A11A7230A128A113B30A2
:100ADC000A128A11A7230A128A110D300A128A11DE
:100AEC00A7230A128A110A300A128A11A7230A12A2
:100AFC008A11063083120313B8001330B700AD30DF
:100B0C00B600B60B872DB70B872DB80B872D272D6D
:100B1C000A128A11002883120313A101F31F972DC7
:100B2C00982DA52DF009F109F209F309F00A031922
:100B3C00F10A0319F20A0319F30AA101A10AF71F1A
:100B4C00A82DA92DB82DF409F509F609F709F40A11
:100B5C000319F50A0319F60A0319F70A0130F8000C
:100B6C007808A1060030A5000030A4000030A300D6
:100B7C000030A20073087204710470040319C72DAD
:100B8C00C82D152EA001A00AD82D0130F800031095
:100B9C00F00DF10DF20DF30DF80BCD2D0130F80029
:100BAC007808A007F31FDB2DDC2DCB2D0130F800CE
:100BBC000310A20DA30DA40DA50DF80BDE2D7308CB
:100BCC007702031DF32D72087602031DF32D7108B5
:100BDC007502031DF32D70087402031CF62DF72DFE
:100BEC00062E7008F4027108031C710FF5027208CE
:100BFC00031C720FF6027308031C730FF702221406
:100C0C0001300310F30CF20CF10CF00CFF3E031D41
:100C1C00072E0130A002031D142E152EDC2D2108E9
:100C2C000319192E1A2E252EA209A309A409A50908
:100C3C00A20A0319A30A0319A40A0319A50A250871
:100C4C00F3002408F2002308F1002208F000080049
:100C5C00831203132608AA002708AB002808AC004F
:100C6C002908AD0006300310AA0DAB0DAC0DAD0D6F
:100C7C00FF3E031D392E2D08F3002C08F2002B0823
:100C8C00F1002A08F0002608AE002708AF0028085B
:100C9C00B0002908B10006300310AE0DAF0DB00D39
:100CAC00B10DFF3E031D522E0030B2000930B300CF
:100CBC003D30B4000030B5002E08B2022F08031CE2
:100CCC002F0F692E6A2EB3023008031C300F6F2EC3
:100CDC00702EB4023108031C310F752E762EB5021E
:100CEC003508F7003408F6003308F5003208F40034
:100CFC000A128A1191250A128A117108FA007008D9
:100D0C00F90001307A02003003197902031C8F2E8E
:100D1C00902EEC2E831203132608AA002708AB0092
:100D2C002808AC002908AD0004300310AA0DAB0D47
:100D3C00AC0DAD0DFF3E031D9B2E2D08F3002C08B2
:100D4C00F2002B08F1002A08F0002608AE00270854
:100D5C00AF002808B0002908B10004300310AE0D14
:100D6C00AF0DB00DB10DFF3E031DB42E0030B2001F
:100D7C000930B3003D30B4000030B5002E08B2028B
:100D8C002F08031C2F0FCB2ECC2EB3023008031CC4
:100D9C00300FD12ED22EB4023108031C310FD72EB6
:100DAC00D82EB5023508F7003408F6003308F500E4
:100DBC003208F4000A128A1191250A128A1171085C
:100DCC00FA007008F90083160313181501307A0223
:100DDC000030031979020318F42EF52E072F790829
:100DEC008316031399001812831203139817831692
:100DFC000313871707138312031318168316031391
:100E0C009816080083120313AB002130A3002308AB
:100E1C00A600D92F25302C060319152F162F222F9B
:100E2C002C08A3002B0884002308831380000130B6
:100E3C00A3002308AB07D92FA7010130A007FF306F
:100E4C00200784000A128A1103200A128A11AC00AE
:100E5C00A300A4012408003A0319352FD92F230825
:100E6C00003A0319EB2F643A0319402F0D3A03197A
:100E7C00402FD92F2608840083130008A900840A68
:100E8C000008AA000230A3002308A607AA1F4F2FB0
:100E9C00502F592F0330A3002308A704A909AA092E
:100EAC00A90A0319AA0AAC01AC0A2C08A30023074F
:100EBC00013E84000A128A1103200A128A11A4002E
:100ECC000A128A1103200A128A11A50025082A0287
:100EDC00031D722F240829020318752F762F772FE4
:100EEC00812F0130A3002308AC0705302C06031D0D
:100EFC00802F812F5B2F270803390319862F872F0B
:100F0C00922F2D30A3002B0884002308831380001C
:100F1C000130A3002308AB072C08A3002308A8006A
:100F2C00D02F0A30F8000030F9002808A30023075E
:100F3C00013E84000A128A1103200A128A11F00061
:100F4C000A128A1103200A128A11F1002A08F300EE
:100F5C002908F2000A128A1175240A128A117108E2
:100F6C00FB007008FA000A128A11FD230A128A117A
:100F7C007808303E83120313A4002408AC002C081C
:100F8C00A3002B0884002308831380000130A300E6
:100F9C002308AB07FF30A3002308A807280A031D6A
:100FAC00D82FD92F972F0130A007FF3020078400AE
:100FBC000A128A1103200A128A11A3002308AC001A
:100FCC002C08031DEA2FEB2F102F2B088400831302
:100FDC008001080083120313B901BA01BB01BC01E3
:100FEC00BD01BE01BF01C001C101C20183010A12D2
:040FFC008A11042D25
:04400E00D4E0FFFFFC
:00000001FF
